:020000020000FC
:0200000020C01E
:02000C0091C0A1
:100040008CC00FEF0DBF08E00EBF407924301912AD
:1000500002780010F0E0EAE4B2E0A1E05BE0659134
:100060005A95503011F06D93FACFF0E0EAE4D1E008
:10007000C1E05BE045915A95503011F04993FACFB9
:10008000F89400E80093610004E00093610003E04D
:1000900005BD04E606BD00E004B90FEF05B90FEF9A
:1000A00007B900E008B90FEF0AB900E00BB901E0A9
:1000B00000936E0003E000936B0001E00093680082
:1000C00010E02FEFABE0B2E02C93B2E0A1E04C9156
:1000D000D1E0C1E0588178947FEF4BB9F0FF03C0C5
:1000E000449A5BB94498F0FD03C0459A4BB94598D2
:1000F000F436A1F7403409F44D91FF274D914F3F5D
:1001000061F4503409F45991A1E0B2E04C91599155
:10011000523019F4D1E0C1E05881F0FF03C0449A95
:100120005BB94498F0FD03C0459A4BB94598D6CFCA
:100130000F930FB70F9303B100FF04C01395103155
:1001400009F410E001FF04C01A951F3F09F41FE0F5
:1001500018B90F910FBF0F91189504E606BDF395DE
:020160001895F0
:00000001FF
