:100000000C943B000C9458000C9458000C9458002D
:100010000C9458000C9458000C9458000C94580000
:100020000C9458000C9458000C9458000C945800F0
:100030000C9458000C9458000C9458000C945800E0
:100040000C9458000C9458000C9412010C94580015
:100050000C9458000C9458000C9458000C945800C0
:100060000C9458000C94580086018D0194019E0157
:10007000A801B201BC0111241FBECFEFD8E0DEBF42
:10008000CDBF11E0A0E0B1E0EEEBF4E002C00590DE
:100090000D92AE32B107D9F721E0AEE2B1E001C076
:1000A0001D92A734B207E1F70E94B8000C945D02DC
:1000B0000C940000882324F495B1926095B903C094
:1000C00095B19D7F95B986FF04C095B1916095B9B2
:1000D00003C095B19E7F95B985FF04C09BB1906820
:1000E0009BB903C09BB19F779BB984FF04C09BB1B0
:1000F00090649BB903C09BB19F7B9BB983FF04C0F5
:100100009BB190629BB903C09BB19F7D9BB982FF5D
:1001100004C09BB190619BB903C09BB19F7E9BB90A
:1001200081FF04C09BB198609BB903C09BB1977FCE
:100130009BB980FF04C08BB184608BB908958BB1EB
:100140008B7F8BB9089510923D0187B1806287B98A
:100150008AB18C6F8AB984B1836084B988B18062B6
:1001600088B985B18C7F85B98BB183708BB90895BF
:100170000E94A30087E60E94D90120E040E060E2EF
:1001800086E50E946E01789488B18F7D88B983E6F8
:100190000E94D30180E00E94D301809331018091BD
:1001A00031014AE063E371E090E00E94330280E0B5
:1001B00091E00E94F40183E391E00E94F4018BE25C
:1001C00091E00E94F40188B1806288B988B18F7D86
:1001D00088B984E60E94D30180E00E94D301809315
:1001E0003101809131014AE063E371E090E00E94C7
:1001F00033028EE091E00E94F40183E391E00E94DB
:10020000F4018BE291E00E94F40188B1806288B928
:100210002FEF80E792E0215080409040E1F700C04E
:100220000000B2CF1F920F920FB60F9211242F939E
:100230003F934F935F936F937F938F939F93AF936E
:10024000BF93EF93FF938091C600809330018A3073
:1002500001F58DE391E00E940D0280932F018CE166
:1002600091E00E94F40180912F010E945A0088B110
:100270008F7D88B98CE40E94D30180912F010E9468
:10028000D30188B1806288B910922E0110923D018D
:1002900014C090912E01993080F4E0912E0191E0EC
:1002A0009E0F90932E01F0E0E35CFE4F8083E0917F
:1002B0002E01F0E0E35CFE4F1082FF91EF91BF91C1
:1002C000AF919F918F917F916F915F914F913F91EE
:1002D0002F910F900FBE0F901F901895E82F84FF5D
:1002E00052C084B18C6284B984B18F7E84B98CB5DC
:1002F00080618CBDE7708E2F90E08730910508F00B
:100300004BC0FC01EC5CFF4F0C9407028CB58C7F5A
:100310008CBD8DB581608DBD3FC08CB58C7F8CBD93
:100320008DB58E7F8DBD38C08CB581608CBD8CB590
:100330008D7F8CBD8DB581608DBD2EC08CB58160EB
:100340008CBD8CB58D7F8CBD8DB58E7F8DBD24C051
:100350008CB58E7F8CBD8CB582608CBD8DB5816077
:100360008DBD1AC08CB58E7F8CBD8CB582608CBD66
:100370008DB58E7F8DBD10C08CB583608CBD8DB565
:100380008E7F8DBD09C084B1806184B984B1837DC5
:1003900084B98CB58F7E8CBD8CB5462B242B282B35
:1003A00020642CBD08958EBD0DB407FEFDCF8EB523
:1003B00008959AB192609AB99AB19E7F9AB91092B3
:1003C000C00098E99093C10096E09093C20090E03D
:1003D0009093C5008093C40008959091C00095FF4C
:1003E000FCCF8093C60008950F931F93CF938C0189
:1003F000C0E003C00E94ED01CF5FF801EC0FF11DDA
:1004000080818111F7CFCF911F910F910895EE0F49
:10041000FF1F0590F491E02D0994FC01882799278E
:10042000E89421912032E9F3293010F02E30C8F3FE
:100430002B3241F02D3239F4689404C00E942B0213
:10044000820F911D219120532A30C0F31EF4909504
:1004500081959F4F08957AE0979F902D879F802DDB
:10046000910D11240895BB27FB015527AA27880F5A
:10047000991FAA1FA41710F0A41B83955051B9F718
:10048000A05DAA3308F0A95DA193009779F7B11197
:10049000B1931192CB010C944D02DC01FC01672F4A
:1004A00071917723E1F7329704C07C916D9370834B
:0E04B0006291AE17BF07C8F30895F894FFCF0E
:1004BE0056616C6F7220504F5420313A20005661B5
:1004CE006C6F7220504F5420323A20004E756D657D
:0E04DE00726F20726563696269646F0D0A00B7
:00000001FF
