S00F00007072656C6162362E7372656369
S11300000C9434000C9449000C9449000C9449005D
S11300100C9449000C9449000C9449000C94490038
S11300200C9449000C9449000C9449000C94490028
S11300300C9449000C9449000C9449000C94490018
S11300400C9449000C9449000C948D000C944900C4
S11300500C9449000C9449000C9449000C944900F8
S11300600C9449000C94490011241FBECFEFD8E032
S1130070DEBFCDBF11E0A0E0B1E0EAE4F1E002C0F0
S113008005900D92A432B107D9F70E9484000C9414
S1130090A3000C9400008AB182608AB98AB18E7F71
S11300A08AB91092C00088E98093C10086E08093E9
S11300B0C20087E690E09093C5008093C400089541
S11300C0F8948FEF84B915B887B918B80E944B001B
S11300D0789408959091C00095FFFCCF8093C6005A
S11300E008950F931F93CF938C01C0E003C00E9427
S11300F06A00CF5FF801EC0FF11D80818111F7CF09
S1130100CF911F910F9108950E9460000E944B00AF
S113011080E091E00E947100FFCF1F920F920FB612
S11301200F9211248F939F938091C600982F9F70F4
S113013095B982958F7088B99F918F910F900FBE5A
S10D01400F901F901895F894FFCF5C
S113014A486F6C61206D756E646F68686A6B676866
S113015A6A67686464736766647367666867686A0B
S107016A686B0000BA
S9030000FC
