:100000000C9434000C9451000C9451000C94510049
:100010000C9451000C94F8000C9451000C94510075
:100020000C9451000C9451000C9451000C9451000C
:100030000C9451000C940D010C9451000C9451003F
:100040000C9451000C9451000C9451000C945100EC
:100050000C9451000C9451000C9451000C945100DC
:100060000C94A2000C94510011241FBECFEFD8E0D5
:10007000DEBFCDBF11E0A0E0B1E0E6EDF2E002C0EE
:1000800005900D92A830B107D9F721E0A8E0B1E0C2
:1000900001C01D92AD30B207E1F70E946D000C94D3
:1000A00069010C94000097B19F7C97B9880F8093E9
:1000B000BA0085E48093BC000895F8948AB18D7FDE
:1000C0008AB9E8E6F0E0808184608083EDE6F0E0C4
:1000D0008081826080837894089584B1806284B93D
:1000E00085B18F7D85B98AB1806F8AB98BB18F70E8
:1000F0008BB962E57EEF80E490E00E942C010E94C3
:100100005D0080E20E945300809109018F3421F448
:1001100081E080930B0106C0809109018B3411F4BA
:1001200010920B0180910B01813041F4E0910C01A0
:10013000F0E0E050FF4F80818BB9E6CF8BB18F703C
:100140008BB9E2CF1F920F920FB60F9211248F93AB
:10015000EF93FF938091B900887F80930A0185B166
:10016000806285B980910A01803A99F158F480370C
:10017000A1F018F4803689F030C0803891F08039D1
:1001800081F02BC0883BA9F018F4883A91F025C083
:10019000803CB9F0883CA9F020C085EC8093BC007D
:1001A0001FC08091BB008093090185EC8093BC0047
:1001B00017C0809108018093BB0085EC8093BC0040
:1001C0000FC0ECEBF0E010821092080185E4808310
:1001D00007C085EC8093BC0003C085EC8093BC0015
:1001E000FF91EF918F910F900FBE0F901F90189578
:1001F0001F920F920FB60F9211248F9380910901D5
:10020000833529F4499B03C081E4809308018F91D1
:100210000F900FBE0F901F9018951F920F920FB660
:100220000F9211248F939F9382E59EEF9093850008
:100230008093840080910C018F5F80930C018091EA
:100240000C01883010F010920C019F918F910F904B
:100250000FBE0F901F901895F89421E026BB1092C6
:100260008000109281008034910591F018F4089775
:1002700049F020C0811521E0920781F0811594405A
:1002800099F018C0E1E8F0E080818260808317C0B7
:10029000E1E8F0E080818360808311C0E1E8F0E074
:1002A0008081846080830BC0E1E8F0E0808185601C
:1002B000808305C0E1E8F0E08081816080837093F5
:1002C000850060938400EFE6F0E0808181608083A8
:0602D0000895F894FFCF31
:0802D600903060C0903060C060
:00000001FF
