:100000000C9434000C9446000C9446000C9446006A
:100010000C9446000C94C2000C9446000C944600CC
:100020000C9446000C9446000C9446000C94460038
:100030000C9446000C9446000C9446000C94460028
:100040000C9446000C9446000C9446000C94460018
:100050000C9446000C9446000C9446000C94460008
:100060000C947B000C94460011241FBECFEFD8E007
:10007000DEBFCDBF21E0A0E0B1E001C01D92A23003
:10008000B207E1F70E9465000C94D3000C940000C5
:1000900097B19F7C97B9880F8093BA0085E48093CD
:1000A000BC000895F8948AB18E7F8AB98BB18160C3
:1000B0008BB9E8E6F0E0808184608083EDE6F0E0D3
:1000C0008081816080837894089584B1806284B94E
:1000D00085B18F7D85B90E94520080E190E00E9439
:1000E0004800809100018235E1F783B1806283B9D5
:1000F00010920001F6CF1F920F920FB60F921124AB
:100100008F938091B900887F803A79F158F48037D5
:10011000A1F018F4803689F02CC0803891F0803935
:1001200081F027C0883BA9F018F4883A91F021C0EB
:10013000803CB9F0883CA9F01CC085EC8093BC00E1
:100140001BC08091BB008093000185EC8093BC00B4
:1001500013C0809101018093BB0085EC8093BC00AB
:100160000BC085EC8093BC0007C085EC8093BC007D
:1001700003C085EC8093BC008F910F900FBE0F9051
:100180001F9018951F920F920FB60F9211248F9304
:10019000489903C08FE0809301018F910F900FBEAB
:0A01A0000F901F901895F894FFCF00
:00000001FF
