S00E0000534C415645332E7372656368
S11300000C9434000C9446000C9446000C94460066
S11300100C9446000C9411010C9446000C94460078
S11300200C9446000C9446000C9446000C94460034
S11300300C9446000C9426010C9446000C94460043
S11300400C9446000C9446000C9446000C94460014
S11300500C9446000C9446000C9446000C94460004
S11300600C94BB000C94460011241FBECFEFD8E0C3
S1130070DEBFCDBF21E0A0E0B1E001C01D92A530FC
S1130080B207E1F70E9462000C9482010C94000014
S113009097B19F7C97B9880F8093BA0085E48093C9
S11300A0BC000895F8948AB18D7F8AB9E8E6F0E03F
S11300B0808184608083EDE6F0E0808182608083CB
S11300C07894089584B1806284B985B18F7D85B9AF
S11300D08AB1806F8AB98BB18F708BB967EF72EC7C
S11300E080E094E00E9445010E94520080E20E9458
S11300F04800809101018F3421F481E08093030151
S113010006C0809101018B3411F410920301809197
S11301100301813061F580910401811107C08BB125
S11301208F708BB98BB180618BB9E3CF809104015F
S1130130813039F48BB18F708BB98BB180628BB9FC
S1130140D8CF80910401823039F48BB18F708BB990
S11301508BB180648BB9CDCF80910401833049F693
S11301608BB18F708BB98BB180688BB9C2CF8BB1D7
S11301708F708BB9BECF1F920F920FB60F921124BE
S11301808F93EF93FF938091B900887F809302014E
S113019085B1806285B980910201803A99F158F461
S11301A08037A1F018F4803689F030C0803891F09F
S11301B0803981F02BC0883BA9F018F4883A91F07B
S11301C025C0803CB9F0883CA9F020C085EC809320
S11301D0BC001FC08091BB008093010185EC80931B
S11301E0BC0017C0809100018093BB0085EC809314
S11301F0BC000FC0ECEBF0E010821092000185E42B
S1130200808307C085EC8093BC0003C085EC809399
S1130210BC00FF91EF918F910F900FBE0F901F9034
S113022018951F920F920FB60F9211248F938091FD
S11302300101833529F4499B03C081E480930001C3
S11302408F910F900FBE0F901F9018951F920F92D1
S11302500FB60F9211248F939F9387EF92EC909394
S1130260850080938400809104018F5F8093040152
S113027080910401843010F0109204019F918F91B9
S11302800F900FBE0F901F901895F89421E026BB95
S113029010928000109281008034910591F018F43E
S11302A0089749F020C0811521E0920781F081155B
S11302B0944099F018C0E1E8F0E080818260808386
S11302C017C0E1E8F0E080818360808311C0E1E839
S11302D0F0E08081846080830BC0E1E8F0E08081FD
S11302E08560808305C0E1E8F0E0808181608083DF
S11302F07093850060938400EFE6F0E08081816074
S10B030080830895F894FFCFF7
S9030000FC
