S00B00004932432E737265635B
S11300000C9434000C9446000C9446000C94460066
S11300100C9446000C9446000C9446000C94460044
S11300200C9446000C9446000C9446000C94460034
S11300300C9446000C9446000C9446000C94460024
S11300400C9446000C9446000C9446000C94460014
S11300500C9446000C9446000C9446000C94460004
S11300600C9446000C94460011241FBECFEFD8E038
S1130070DEBFCDBF21E0A0E0B1E001C01D92A430FD
S1130080B207E1F70E9400010C94D7010C94000020
S11300900F931F93CF938B019C01C42F87B18F7C47
S11300A087B9443079F018F4413031F023C040313D
S11300B091F04034C9F01EC0E9EBF0E080818C7F00
S11300C080831EC0E9EBF0E080818D7F8083808196
S11300D08160808315C0E9EBF0E080818E7F8083AE
S11300E08081826080830CC0E9EBF0E080818360D2
S11300F0808306C0E9EBF0E080818C7F8083C1E0DF
S113010060E074E284EF90E0A90198010E94B501D7
S1130110CA01B90160517109810991094C2F50E05C
S11301209A01220F331F032E000C440B550B0E941F
S1130130B5012093B800ECEBF0E08081846080830B
S1130140CF911F910F91089584EA8093BC00809110
S1130150BC008823E4F79091B900987F81E098303F
S113016009F080E0089584EA8093BC008091BC008B
S11301708823E4F79091B900987F81E0903109F0E9
S113018080E0089584E98093BC008091BC0084FDE4
S1130190FCCF08958093BB0084E88093BC008091D9
S11301A0BC008823E4F78091B900887F883121F06E
S11301B0883219F481E0089581E00895FC016623F2
S11301C021F084EC8093BC0003C084E88093BC00DD
S11301D09091BC009923E4F79091B900987F66232D
S11301E011F0903549F4611102C0983539F48091C9
S11301F0BB00808381E0089580E0089580E0089545
S113020041E060EA76E881E090E00E94480084B131
S1130210806284B987B1826087B988B18D7F88B9DB
S113022078940E94A400882309F49EC080E20E946E
S1130230CA00811103C00E94C200089584E40E9490
S1130240CA000E94B300811103C00E94C200089535
S113025081E20E94CA00811103C00E94C200089575
S113026060E083E091E00E94DE000E94C200809181
S11302700301843439F48FE4809301018CE4809386
S1130280000103C088B18D7F88B90E94A40088232F
S113029009F46AC080E20E94CA00811103C00E946E
S11302A0C2000895809100010E94CA000E94C20009
S11302B00E94A400882309F457C080E40E94CA0065
S11302C0811103C00E94C200089583E50E94CA0000
S11302D00E94B300811103C00E94C200089581E40A
S11302E00E94CA00811103C00E94C200089560E008
S11302F083E091E00E94DE000E94C200809103012D
S1130300813439F48BE4809301018DE480930001FE
S113031003C088B18D7F88B985B18F7D85B90E946E
S1130320A400882309F180E40E94CA00811103C05B
S11303300E94C2000895809101010E94CA000E9497
S1130340C2000E94A400882379F080E20E94CA00BF
S1130350811103C00E94C2000895809100010E948F
S1130360CA000E94C2005DCF0895A1E21A2EAA1B02
S1130370BB1BFD010DC0AA1FBB1FEE1FFF1FA21751
S1130380B307E407F50720F0A21BB30BE40BF50B4E
S1130390661F771F881F991F1A9469F760957095D7
S11303A0809590959B01AC01BD01CF010895F8940F
S10503B0FFCF79
S9030000FC
