:100000000C9444000C9461000C9461000C94610009
:100010000C9400030C9486020C9461000C94610013
:100020000C9461000C9461000C9461000C946100CC
:100030000C9461000C9461000C9461000C946100BC
:100040000C94AC010C9461000C9461000C94610060
:100050000C9461000C9456010C9461000C946100A6
:100060000C9461000C9461008A00900096009C0042
:10007000A200A800AE00B400F700FD0003010901D2
:100080000F0115011B01210111241FBECFEFD8E084
:10009000DEBFCDBF11E0A0E0B1E0E4E7F7E002C0D1
:1000A00005900D92AE30B107D9F721E0AEE0B1E096
:1000B00001C01D92AD31B207E1F70E9445010C94D9
:1000C000B8030C940000262FF894ACE7B0E01C9223
:1000D0009C9190649C93882319F0813039F00CC076
:1000E000ACE7B0E08C918F7D8C930BC0ACE7B0E0B7
:1000F0008C9180628C9305C0ACE7B0E08C918062FB
:100100008C9350E048305105A8F5FA01EC5CFF4FA4
:100110000C94B203ECE7F0E08081807F80832FC0F5
:10012000ECE7F0E080818160808329C0ECE7F0E0BB
:1001300080818260808323C0ECE7F0E0808183606F
:1001400080831DC0ECE7F0E080818460808317C06D
:10015000ECE7F0E080818560808311C0ECE7F0E09F
:100160008081866080830BC0ECE7F0E0808187604F
:10017000808305C0ECE7F0E08081807F808310926F
:100180007A00203831F4EAE7F0E080818F6C8083D8
:1001900005C0EAE7F0E080818F6C80837894089551
:1001A000E82FACE7B0E01C928C9180648C936623BE
:1001B00019F0613039F00CC0ACE7B0E08C918F7D64
:1001C0008C930BC0ACE7B0E08C9180628C9305C03F
:1001D000ACE7B0E08C9180628C938E2F90E08830F9
:1001E0009105A8F5FC01E45CFF4F0C94B203ECE729
:1001F000F0E08081807F80830895ECE7F0E08081EB
:10020000816080830895ECE7F0E0808182608083E4
:100210000895ECE7F0E08081836080830895ECE747
:10022000F0E08081846080830895ECE7F0E08081D5
:10023000856080830895ECE7F0E0808186608083AC
:100240000895ECE7F0E08081876080830895ECE713
:10025000F0E08081807F80830895F8948AB1837C68
:100260008AB98BB18C638BB987B1877E87B988B126
:10027000886188B98CE380936D0088E180936C007D
:1002800086E080936800789408950E942D0140E0F4
:1002900060E881E00E94630087E60E94840346E0F4
:1002A00060E470E080E00E944E03FFCF1F920F9247
:1002B0000FB60F9211242F933F934F935F936F9339
:1002C0007F938F939F93AF93BF93EF93FF9380910F
:1002D0001C01882319F0813081F01DC061E081E0AC
:1002E0000E94D0008091790080931B0180911B01B6
:1002F000843688F080911B010EC061E080E00E948E
:10030000D0008091790080931A0180911A0184367F
:1003100010F080911A0180911C018F5F80931C0165
:1003200080911C01823010F010921C01EAE7F0E08D
:10033000808180648083FF91EF91BF91AF919F9105
:100340008F917F916F915F914F913F912F910F907E
:100350000FBE0F901F9018951F920F920FB60F921D
:1003600011242F933F934F935F936F937F938F93BA
:100370009F93AF93BF93EF93FF93809119018823CD
:1003800029F0809119018150809319018091180101
:10039000882329F080911801815080931801809161
:1003A0001701882329F0809117018150809317014C
:1003B00080911601882329F0809116018150809345
:1003C000160180911501882329F080911501815033
:1003D0008093150180911401882329F080911401E4
:1003E0008150809314014C991CC0809111018F3F62
:1003F00029F0809111018F5F80931101809111018B
:100400008E3188F082E30E94980380E091E00E94A0
:100410009F0382E091E00E949F0389E18093110194
:1004200002C0109211014D991CC0809110018F3FA4
:1004300029F0809110018F5F80931001809110014D
:100440008E3188F082E30E94980384E091E00E945C
:100450009F0382E091E00E949F0389E18093100155
:1004600002C0109210014A991CC080910F018F3F69
:1004700029F080910F018F5F80930F0180910F0110
:100480008E3188F082E30E94980386E091E00E941A
:100490009F0382E091E00E949F0389E180930F0116
:1004A00002C010920F014B991CC080910E018F3F2A
:1004B00029F080910E018F5F80930E0180910E01D3
:1004C0008E3188F082E30E94980388E091E00E94D8
:1004D0009F0382E091E00E949F0389E180930E01D7
:1004E00002C010920E0186E086BDFF91EF91BF9190
:1004F000AF919F918F917F916F915F914F913F91BC
:100500002F910F900FBE0F901F9018951F920F9272
:100510000FB60F9211242F933F934F935F936F93D6
:100520007F938F939F93AF93BF93EF93FF934A99DA
:1005300014C080911501811110C084E680931501CB
:1005400010920F0182E30E94980386E091E00E94DE
:100550009F0382E091E00E949F034B9914C0809119
:100560001401811110C084E68093140110920E01D1
:1005700082E30E94980388E091E00E949F0382E05A
:1005800091E00E949F034C9914C080911701811142
:1005900010C084E6809317011092110182E30E943B
:1005A000980380E091E00E949F0382E091E00E9426
:1005B0009F034D9914C080911601811110C084E6EB
:1005C000809316011092100182E30E94980384E048
:1005D00091E00E949F0382E091E00E949F03FF91BF
:1005E000EF91BF91AF919F918F917F916F915F91AB
:1005F0004F913F912F910F900FBE0F901F90189524
:100600001F920F920FB60F9211242F933F934F9387
:100610005F936F937F938F939F93AF93BF93EF936A
:10062000FF93349914C080911801811110C084E6A1
:10063000809318011092120182E30E9498038AE0CD
:1006400091E00E949F0382E091E00E949F03339912
:1006500014C080911901811110C084E680931901A2
:100660001092130182E30E9498038CE091E00E94B3
:100670009F0382E091E00E949F03FF91EF91BF9161
:10068000AF919F918F917F916F915F914F913F912A
:100690002F910F900FBE0F901F901895882319F07F
:1006A000813019F005C014BC04C082E084BD01C0D3
:1006B00014BC60347105C1F038F46130710561F02B
:1006C0006830710569F01BC0611581E0780781F021
:1006D0006115744089F013C085B5816085BD0FC078
:1006E00085B5826085BD0BC085B5836085BD07C0BB
:1006F00085B5846085BD03C085B5856085BD46BD73
:1007000081E080936E0008959AB192609AB99AB18F
:100710009E7F9AB91092C00098E99093C10096E02C
:100720009093C20090E09093C5008093C400089518
:100730009091C00095FFFCCF8093C60008950F9361
:100740001F93CF938C01C0E003C00E949803CF5F3A
:10075000F801EC0FF11D80818111F7CFCF911F912E
:100760000F910895EE0FFF1F0590F491E02D09946D
:04077000F894FFCF2B
:0E07740055000A00520044004C0042004100B3
:00000001FF
