S02100006C6162335F7370695F6573636C61766F5F6469676974616C322E737265633B
S11300000C944B000C945D000C945D000C945D000A
S11300100C945D000C945D000C945D000C945D00E8
S11300200C945D000C945D000C945D000C945D00D8
S11300300C945D000C945D000C945D000C945D00C8
S11300400C945D000C9481010C945D000C945D0093
S11300500C945D000C943A010C945D000C945D00CA
S11300600C945D000C945D0086008C009200980056
S11300709E00A400AA00B000F300F900FF000501EF
S11300800B01110117011D01B101B801BF01C90123
S1130090D301DD01E70111241FBECFEFD8E0DEBF9D
S11300A0CDBF21E0A0E0B1E001C01D92A530B207B0
S11300B0E1F70E9429010C9404020C940000262FFD
S11300C0F894ACE7B0E01C929C9190649C938823D4
S11300D019F0813039F00CC0ACE7B0E08C918F7D21
S11300E08C930BC0ACE7B0E08C9180628C9305C01C
S11300F0ACE7B0E08C9180628C9350E048305105BD
S1130100A8F5FA01EC5CFF4F0C94FE01ECE7F0E07B
S11301108081807F80832FC0ECE7F0E08081816064
S1130120808329C0ECE7F0E080818260808323C073
S1130130ECE7F0E08081836080831DC0ECE7F0E0B1
S113014080818460808317C0ECE7F0E08081856063
S1130150808311C0ECE7F0E08081866080830BC06F
S1130160ECE7F0E080818760808305C0ECE7F0E095
S11301708081807F808310927A00203831F4EAE70E
S1130180F0E080818F6C808305C0EAE7F0E0808135
S11301908F6C808378940895E82FACE7B0E01C92CC
S11301A08C9180648C93662319F0613039F00CC013
S11301B0ACE7B0E08C918F7D8C930BC0ACE7B0E0E2
S11301C08C9180628C9305C0ACE7B0E08C91806226
S11301D08C938E2F90E088309105A8F5FC01E45CA7
S11301E0FF4F0C94FE01ECE7F0E08081807F808378
S11301F00895ECE7F0E08081816080830895ECE766
S1130200F0E08081826080830895ECE7F0E08081F3
S1130210836080830895ECE7F0E0808184608083CC
S11302200895ECE7F0E08081856080830895ECE731
S1130230F0E08081866080830895ECE7F0E08081BF
S1130240876080830895ECE7F0E08081807F80837D
S11302500895F89420E040E060E280E40E9499016F
S113026040E060E881E00E945F008CB580688CBD4E
S11302707894FFCF1F920F920FB60F9211242F93F1
S11302803F934F935F936F937F938F939F93AF931A
S1130290BF93EF93FF9380910201813019F0823074
S11302A051F00EC0809179008093010161E080E0FB
S11302B00E94CC000BC0809179008093040106C099
S11302C01092020161E081E00E94CC008091020161
S11302D08F5F80930201EAE7F0E08081806480838D
S11302E0FF91EF91BF91AF919F918F917F916F910A
S11302F05F914F913F912F910F900FBE0F901F90E0
S113030018951F920F920FB60F9211248F938EB5EA
S1130310833621F4809101018EBD05C0843619F421
S1130320809104018EBD8F910F900FBE0F901F908E
S11303301895E82F84FF52C084B18C6284B984B1CB
S11303408F7E84B98CB580618CBDE7708E2F90E070
S11303508730910508F04BC0FC01EC5BFF4F0C9417
S1130360FE018CB58C7F8CBD8DB581608DBD3FC089
S11303708CB58C7F8CBD8DB58E7F8DBD38C08CB512
S113038081608CBD8CB58D7F8CBD8DB581608DBD3C
S11303902EC08CB581608CBD8CB58D7F8CBD8DB528
S11303A08E7F8DBD24C08CB58E7F8CBD8CB5826054
S11303B08CBD8DB581608DBD1AC08CB58E7F8CBD12
S11303C08CB582608CBD8DB58E7F8DBD10C08CB513
S11303D083608CBD8DB58E7F8DBD09C084B1806175
S11303E084B984B1837D84B98CB58F7E8CBD8CB582
S11303F0462B242B282B20642CBD0895EE0FFF1FC1
S10F04000590F491E02D0994F894FFCFCE
S9030000FC
