S02100006C6162335F7370695F6573636C61766F5F6469676974616C322E737265633B
S11300000C9443000C9455000C9455000C9455002A
S11300100C9455000C9455000C9455000C94550008
S11300200C9455000C9455000C9455000C945500F8
S11300300C9455000C9455000C9455000C945500E8
S11300400C9455000C94EE000C9455000C9455003F
S11300500C9455000C94D5000C9455000C94550048
S11300600C9455000C9455007E0084008A00900086
S113007096009C00A200A80019012001270130016C
S11300803A0144014E0111241FBECFEFD8E0DEBF78
S1130090CDBF21E0A0E0B1E001C01D92A130B207C4
S11300A0E1F70E94C4000C946B010C940000262F0D
S11300B0F894ACE7B0E01C929C9190649C938823E4
S11300C019F0813039F00CC0ACE7B0E08C918F7D31
S11300D08C930BC0ACE7B0E08C9180628C9305C02C
S11300E0ACE7B0E08C9180628C9350E048305105CD
S11300F0A8F5FA01EC5CFF4F0C946501ECE7F0E025
S11301008081807F80832FC0ECE7F0E08081816074
S1130110808329C0ECE7F0E080818260808323C083
S1130120ECE7F0E08081836080831DC0ECE7F0E0C1
S113013080818460808317C0ECE7F0E08081856073
S1130140808311C0ECE7F0E08081866080830BC07F
S1130150ECE7F0E080818760808305C0ECE7F0E0A5
S11301608081807F808310927A00203831F4EAE71E
S1130170F0E080818F6C808305C0EAE7F0E0808145
S11301808F6C808378940895F89420E040E060E2D6
S113019080E40E94010140E060E880E00E94570092
S11301A08DB580688DBD7894FFCF1F920F920FB6E6
S11301B00F9211248F93EF93FF9380917900809392
S11301C00001EAE7F0E0808180648083FF91EF9191
S11301D08F910F900FBE0F901F9018951F920F9242
S11301E00FB60F9211248F938EB58EB5833619F402
S11301F0809100018EBD8F910F900FBE0F901F90C4
S11302001895E82F84FF51C084B18C6284B984B1FD
S11302108F7E84B98CB580618CBDE7708E2F90E0A1
S11302208730910508F04AC0FC01E45CFF4F0C9450
S113023065018CB58C7F8CBD8DB581608DBD3EC054
S11302408CB58C7F8CBD8DB58E7F8DBD37C08CB544
S113025081608CBD8CB58D7F8CBD8DB581608DBD6D
S11302608CB581608CBD8CB58D7F8CBD8DB58E7F3A
S11302708DBD24C08CB58E7F8CBD8CB582608CBD49
S11302808DB581608DBD1AC08CB58E7F8CBD8CB54B
S113029082608CBD8DB58E7F8DBD10C08CB58360A2
S11302A08CBD8DB58E7F8DBD09C084B1806184B94C
S11302B084B1837D84B98CB58F7E8CBD8CB5462B7F
S11302C0242B282B20642CBD0895EE0FFF1F0590CE
S10D02D0F491E02D0994F894FFCF97
S9030000FC
