:020000020000FC
:0200000020C01E
:02000C0018C119
:0200240007C112
:10004000F5C00FEF0DBF08E00EBF40792430191244
:1000500002780010FF00F0E0EAE4B1E0A0E00CE07C
:1000600015910A95003011F01D93FACFF89400E82D
:100070000093610005E00093610005E005BD0CE020
:1000800006BD07E00093B1000EEF0093B20007E059
:1000900000936B0001E00093680001E000936E00A4
:1000A00001E0009370000FEF0AB900E00BB908EF10
:1000B00004B907E005B90FEF07B900E008B9B1E0EE
:1000C000A0E0222755276627772788279927CC275E
:1000D000DD27EE27FF2778949C91CC91DC91EC9161
:1000E000F43009F4FF273837D1F53327223009F4EB
:1000F00046C0B1E0A0E053955A3019F0A50F9C918D
:100100002EC0B1E0A0E05527A50F9C916395663005
:1001100019F0A60FCC9123C0B1E0A0E06627A60F8E
:10012000CC917395743029F07A3031F0A70FDC91BF
:1001300016C0823051F0F8CFB1E0A0E07727A60FCB
:10014000DC918395A80FEC910AC0B1E0A0E088276C
:100150007727A80FEC91A70FDC91CC919C912030D0
:1001600049F430FF409A30FD409845982B9A0E9400
:100170002D01B6CF213019F42B982C9AB1CF223013
:10018000E9F52C9830FF2B9A30FD2B98B1E0A0E0D8
:100190005A3018F4A50F9C912EC0B1E0A0E055276D
:1001A000A50F9C916395663018F4A60FCC9123C0DF
:1001B000B1E0A0E06627A60FCC91743028F47A3025
:1001C00030F4A70FDC9117C0823051F0F8CFB1E0C6
:1001D000A0E07727A60FDC918395A80FEC910BC0C8
:1001E000B1E0A0E088277727A80FEC91A70FDC915A
:1001F000CC919C9100C00E942D0172CF233031F42C
:100200002B9830FF2C9A30FD2C986ACF243031F493
:100210002C9830FF2D9A30FD2D9862CF253029F48F
:100220002D9830FF459A30FD45985ACF0CE006BD19
:10023000339518950EEF0093B200F395189503B11E
:1002400000FD01C0239501FD01C0539502FD01C0D1
:100250007395263009F422271895F03019F4419A45
:100260009BB94198F13019F4429ACBB94298F230D7
:1002700019F4449ADBB94498F33019F4439AEBB972
:040280004398089502
:00000001FF
