:020000020000FC
:0200000020C01E
:02000C0042C1EF
:0200240031C1E8
:100040001FC10FEF0DBF08E00EBF40792430191219
:1000500002780010FF00F0E0EAE4B1E0A0E00CE07C
:1000600015910A95003011F01D93FACFF89400E82D
:100070000093610005E00093610005E005BD0CE020
:1000800006BD07E00093B1000EEF0093B20007E059
:1000900000936B0001E00093680001E000936E00A4
:1000A00001E0009370000FEF0AB900E00BB908EF10
:1000B00004B907E005B90FEF07B900E008B9B1E0EE
:1000C000A0E0222755276627772788279927CC275E
:1000D000DD27EE27FF27BB24AA24992488247894BF
:1000E0009C91CC91DC91EC91BC90AC909C908C90CC
:1000F000F43009F4FF27383709F433278AC0223057
:1001000009F497C0B1E0A0E053955A3019F0A50F5B
:100110009C917FC0B1E0A0E05527A50F9C9163950D
:10012000663019F0A60FCC9174C0B1E0A0E066274C
:10013000A60FCC917395743029F07A3031F0A70F67
:10014000DC9167C0823051F0F8CFB1E0A0E07727B2
:10015000A60FDC918395A80FEC915BC0B1E0A0E005
:1001600088277727A80FEC91A70FDC91CC919C9161
:10017000B1E0A0E0F3944F2D493009F006C04E2DB8
:10018000423019F44D2D423009F14F2D413069F4C0
:100190004E2D433051F44D2D443039F4463029F47E
:1001A000493019F44C2D413089F04F2D423019F46B
:1001B0004E2D433059F0AF0DBC902BC0B1E0A0E004
:1001C000FF24BC90E394AE0DAC9023C0B1E0A0E05E
:1001D000EE24AC90D3944D2D433029F04A3039F0C1
:1001E000AD0D9C9016C04C2D413049F0F7CFB1E0D9
:1001F000A0E0DD249C90C394AC0D8C900AC0B1E0CB
:10020000A0E0FF24EE24DD24CC24BC90AC909C9094
:100210008C90203049F430FF409A30FD409845984A
:100220002B9A0E94570164CF213019F42B982C9AF5
:100230005FCF223069F42C9830FF2B9A30FD2B9839
:1002400040980E946C010E9485010E94570150CF86
:10025000233031F42B9830FF2C9A30FD2C9848CF66
:10026000243031F42C9830FF2D9A30FD2D9840CF5A
:10027000253029F42D9830FF459A30FD459838CF28
:100280000CE006BD339518950EEF0093B200F39580
:10029000189503B100FD01C0239501FD01C05395E0
:1002A00002FD01C07395263009F422271895F0301D
:1002B00019F4419A9BB94198F13019F4429ACBB99B
:1002C0004298F23019F4449ADBB94498F33019F4A7
:1002D000439AEBB943980895B1E0A0E05A3018F47E
:1002E000A50F9C910895B1E0A0E05527A50F9C9122
:1002F0006395663020F4AA27A60FCC910895B1E04B
:10030000A0E06627A60FCC910895B1E0A0E074307C
:1003100029F07A3030F4A70FDC911DC0823059F0FB
:10032000F8CFB1E0A0E07727A60FDC918395AA274C
:10033000A80FEC9110C0B1E0A0E0AA27BB27552779
:10034000662788277727A80FEC91A70F9C91DC914F
:08035000CC919C9100C00895BE
:00000001FF
