:020000020000FC
:100000000FEF0DBF08E00EBF0FEF0AB900E00BB90C
:1000100000E004B90FEF05B940ECE0E0F1E04193F6
:1000200049EF419344EA419340E3419349E14193CD
:1000300042E1419342E0419348E7419340E04193DC
:1000400040E1419348E0419343E0419346E44193CA
:1000500041E2419346E041934EE04193E0E0F1E01C
:1000600040814BB91FEF0E9438000E944200FBCF35
:1000700003B10117E9F30E94560003B10117C1F360
:10008000102F089510FF41914F3F31F011FF429121
:10009000403039F04BB90895E0E0F1E040814BB9D0
:1000A0000895EFE0F1E040814BB9089520E02395F9
:1000B0002030E9F720E023952030E9F720E0239570
:1000C0002030E9F723952030E9F723952030E9F730
:0200D000089591
:00000001FF
