S00C00004C6162312E73726563D8
S11300000C9434000C9451000C9451000C94EE00A8
S11300100C949C000C9451000C9451000C945100CD
S11300200C9451000C9451000C9451000C94510008
S11300300C9451000C9451000C9451000C945100F8
S11300400C942B010C9451000C9451000C9451000D
S11300500C9451000C9451000C9451000C945100D8
S11300600C9451000C94510011241FBECFEFD8E022
S1130070DEBFCDBF11E0A0E0B1E0EAE7F3E002C0EB
S113008005900D92A630B107D9F721E0A6E0B1E0C2
S113009001C01D92AF30B207E1F70E9499000C94A1
S11300A0BB010C940000E82FF0E0E050FF4F80818A
S11300B08BB90895F894E1E6F0E080E8808384E069
S11300C080838FEF8AB98BB987B1887F87B987B16D
S11300D0806387B988B18F7C88B988B1876088B913
S11300E084B1816084B985B18E7F85B984B18D7FF7
S11300F084B985B1826085B9E8E6F0E080818260E8
S11301008083ACE6B0E08C9187608C9380818160C1
S11301108083EBE6F0E080818260808383E085BDAC
S113012082EB86BD81E080936E0082E98BB978947E
S113013008950E945A00FFCF1F920F920FB60F929C
S113014011248F93309913C08091080181110FC03D
S11301508AE08093080181E080930E0110920C01E3
S113016010920D0110920B0110920A0131C03199C5
S11301702FC08091070181112BC08AE08093070171
S113018080910E01811124C080910B018F3000F504
S113019080910A018F30E0F480910B01811106C037
S11301A080910B018F5F80930B0112C080910B0132
S11301B0843049F48FE080930B0184E080930C0138
S11301C010920A0105C080910B01880F80930B01E6
S11301D08F910F900FBE0F901F9018951F920F9242
S11301E00FB60F9211248F9319992FC08091060195
S11301F081112BC08AE08093060180910E01811148
S113020024C080910B018F3000F580910A018F305A
S1130210E0F480910A01811106C080910A018F5F88
S113022080930A0112C080910A01843049F48FE05E
S113023080930A0183E080930C0110920B0105C0A6
S113024080910A01880F80930A018F910F900FBE4D
S11302500F901F9018951F920F920FB60F921124B2
S11302602F933F934F935F936F937F938F939F93BA
S1130270AF93BF93EF93FF9380910801882329F0F4
S1130280809108018150809308018091070188239F
S113029029F0809107018150809307018091060124
S11302A0882329F080910601815080930601809172
S11302B009018F5F8093090180910901843010F056
S11302C01092090180910D018F5F80930D0180913F
S11302D00D01883C98F080910E01882379F01092EA
S11302E00D0180910C018F5F80930C0180910C01B2
S11302F0853021F410920E0180930C0185B18E7F1C
S113030085B988B18F7E88B988B18F7D88B980918D
S11303100901811108C080910C010E94530085B12C
S1130320816085B915C080910901813049F48091BB
S11303300B018F7080958BB988B1806188B908C032
S113034080910A018F7080958BB988B1806288B9D9
S113035082EB86BDFF91EF91BF91AF919F918F91F9
S11303607F916F915F914F913F912F910F900FBEAD
S10D03700F901F901895F894FFCF2A
S109037A9299B0A4F9C041
S9030000FC
