S00F00005072656C6162352E737265638A
S11300000C9434000C9446000C9446000C94460066
S11300100C9446000C9446000C9446000C94460044
S11300200C9446000C94DE000C9446000C9446009C
S11300300C9446000C9446000C9446000C94460024
S11300400C9446000C9446000C9446000C94460014
S11300500C9446000C9472000C9446000C944600D8
S11300600C9446000C94460011241FBECFEFD8E038
S1130070DEBFCDBF21E0A0E0B1E001C01D92A430FD
S1130080B207E1F70E9469000C9486010C94000009
S1130090F8948AB180628AB98BB180628BB9E1EB42
S11300A0F0E08081846080831092B200E0E7F0E0A9
S11300B0808181608083EAE7F0E0108280818B6C2C
S11300C08083E1E6F0E080E8808384E080837894B4
S11300D008950E94480060E470E088E391E00E9483
S11300E0F700FFCF1F920F920FB60F9211242F9398
S11300F03F934F935F936F937F938F939F93AF93AC
S1130100BF93EF93FF93809101018230B1F083306C
S113011031F1813081F580917900809302019091D1
S1130120B200981718F08BB18F7D8BB9ECE7F0E033
S1130130108280818766808326C0809179008093B5
S1130140000145E250E067E070E090E00E94430166
S1130150ECE7F0E0108280818666808314C0809191
S113016079008093030145E250E067E070E090E09D
S11301700E945D0108C0ECE7F0E010828081816696
S1130180808310920101809101018F5F80930101AE
S1130190EAE7F0E0808180648083FF91EF91BF9172
S11301A0AF919F918F917F916F915F914F913F910B
S11301B02F910F900FBE0F901F9018951F920F92C2
S11301C00FB60F9211248F931092B2008091020106
S11301D0811104C08BB18F7D8BB903C08BB1806258
S11301E08BB98F910F900FBE0F901F9018959C01A3
S11301F094B1926094B994B1946094B9E0E8F0E059
S11302009081926A9083E1E8F0E090819861908314
S1130210309387002093860060347105E1F038F450
S11302206130710561F06830710579F026C061159F
S113023081E07807B1F061157440C9F01EC0E1E8AF
S1130240F0E08081816080830895E1E8F0E08081BE
S1130250826080830895E1E8F0E080818360808398
S11302600895E1E8F0E08081846080830895E1E806
S1130270F0E08081856080830895E1E8F0E080818A
S1130280836080830895FB01461B570B489F9001B0
S1130290499F300D589F300D1124A1E8B0E80E9409
S11302A07701880F892F881F990B91958E0F9F1FB7
S11302B090938900809388000895FB01461B570B97
S11302C0489F9001499F300D589F300D1124A1E89B
S11302D0B0E80E947701880F892F881F990B9195A8
S11302E08E0F9F1F90938B0080938A000895A29F86
S11302F0B001B39FC001A39F700D811D1124911DF6
S1130300B29F700D811D1124911D0895F894FFCFA3
S9030000FC
