S00F00005072656C6162352E737265638A
S11300000C9434000C9446000C9446000C94460066
S11300100C9446000C9446000C9446000C94460044
S11300200C9446000C94E5000C9446000C94460095
S11300300C9446000C9446000C9446000C94460024
S11300400C94CC000C9446000C9446000C9446008E
S11300500C9446000C94B7000C9446000C94460093
S11300600C9446000C94460011241FBECFEFD8E038
S1130070DEBFCDBF21E0A0E0B1E001C01D92A430FD
S1130080B207E1F70E9473000C9485010C94000000
S1130090F8948AB180628AB98BB180628BB985B5D4
S11300A0836085BD81EB86BDEEE6F0E080818160F2
S11300B08083E1EBF0E08081846080831092B20061
S11300C0E0E7F0E0808181608083EAE7F0E010827D
S11300D080818B6C8083E1E6F0E080E8808384E0BB
S11300E08083789408950E94480060E470E088E377
S11300F091E00E94F60080910101811112C0ECE7A9
S1130100F0E01082808187668083809179008093FB
S1130110000145E250E067E070E090E00E94420197
S1130120EACF813091F4ECE7F0E0108280818666BA
S11301308083809179008093030145E250E067E079
S113014070E090E00E945C01D6CFECE7F0E0108212
S113015080818166808380917900809302019091EF
S1130160B200981740F28BB18F7D8BB9C4CF1F9228
S11301700F920FB60F9211248F93EF93FF93EAE738
S1130180F0E0808180648083FF91EF918F910F90E4
S11301900FBE0F901F9018951F920F920FB60F92DB
S11301A011248F93809101018F5F8093010181EB72
S11301B086BD80910101833010F0109201018F916E
S11301C00F900FBE0F901F9018951F920F920FB6AD
S11301D00F9211248F931092B2008BB180628BB96D
S11301E08F910F900FBE0F901F9018959C0194B1A2
S11301F0926094B994B1946094B9E0E8F0E090818D
S1130200926A9083E1E8F0E0908198619083309362
S113021087002093860060347105E1F038F4613082
S1130220710561F06830710579F026C0611581E0CF
S11302307807B1F061157440C9F01EC0E1E8F0E040
S11302408081816080830895E1E8F0E080818260AC
S113025080830895E1E8F0E08081836080830895DD
S1130260E1E8F0E08081846080830895E1E8F0E0D3
S11302708081856080830895E1E8F0E08081836077
S113028080830895FB01461B570B489F9001499FAB
S1130290300D589F300D1124A1E8B0E80E9476017A
S11302A0880F892F881F990B91958E0F9F1F90930C
S11302B08900809388000895FB01461B570B489FD3
S11302C09001499F300D589F300D1124A1E8B0E8EA
S11302D00E947601880F892F881F990B91958E0FA4
S11302E09F1F90938B0080938A000895A29FB00172
S11302F0B39FC001A39F700D811D1124911DB29F56
S1110300700D811D1124911D0895F894FFCFF6
S9030000FC
