:100000000C9434000C9446000C9446000C9446006A
:100010000C9446000C9446000C9446000C94460048
:100020000C9446000C9446000C9446000C94460038
:100030000C9446000C9446000C9446000C94460028
:100040000C9446000C9446000C9446000C94460018
:100050000C9446000C9478000C9446000C944600D6
:100060000C9446000C94460011241FBECFEFD8E03C
:10007000DEBFCDBF21E0A0E0B1E001C01D92A03005
:10008000B207E1F70E9469000C94B5000C940000DF
:10009000F894ECE7F0E01082808187668083EAE7DD
:1000A000F0E0108280818B6C80838AB180648AB991
:1000B000E1E6F0E080E8808384E0808384B58068B6
:1000C00084BD84B5836084BD85B5836085BD789427
:1000D00008950E944800809179002EE1829FC0011E
:1000E00011246FEF70E00E948D00695F67BDF3CF50
:1000F0001F920F920FB60F9211248F93EF93FF93DD
:10010000EAE7F0E0808180648083FF91EF918F9136
:100110000F900FBE0F901F90189597FB072E16F4A7
:10012000009407D077FD09D00E94A10007FC05D0FC
:100130003EF4909581959F4F0895709561957F4FFE
:100140000895AA1BBB1B51E107C0AA1FBB1FA6171E
:10015000B70710F0A61BB70B881F991F5A95A9F770
:0E01600080959095BC01CD010895F894FFCFD5
:00000001FF
