:100000000C9444000C9461000C9461000C94610009
:100010000C9461000C9419020C9461000C94610022
:100020000C9461000C9461000C9461000C946100CC
:100030000C9461000C9461000C9461000C946100BC
:100040000C94D5010C9461000C9461000C94610037
:100050000C9461000C944D010C9461000C946100AF
:100060000C9461000C9461008A00900096009C0042
:10007000A200A800AE00B400F700FD0003010901D2
:100080000F0115011B01210111241FBECFEFD8E084
:10009000DEBFCDBF11E0A0E0B1E0E8E3F6E002C0D2
:1000A00005900D92A631B107D9F721E0A6E1B1E0A4
:1000B00001C01D92AF31B207E1F70E943C010C94E0
:1000C0001A030C940000262FF894ACE7B0E01C92C1
:1000D0009C9190649C93882319F0813039F00CC076
:1000E000ACE7B0E08C918F7D8C930BC0ACE7B0E0B7
:1000F0008C9180628C9305C0ACE7B0E08C918062FB
:100100008C9350E048305105A8F5FA01EC5CFF4FA4
:100110000C941403ECE7F0E08081807F80832FC093
:10012000ECE7F0E080818160808329C0ECE7F0E0BB
:1001300080818260808323C0ECE7F0E0808183606F
:1001400080831DC0ECE7F0E080818460808317C06D
:10015000ECE7F0E080818560808311C0ECE7F0E09F
:100160008081866080830BC0ECE7F0E0808187604F
:10017000808305C0ECE7F0E08081807F808310926F
:100180007A00203831F4EAE7F0E080818F6C8083D8
:1001900005C0EAE7F0E080818F6C80837894089551
:1001A000E82FACE7B0E01C928C9180648C936623BE
:1001B00019F0613039F00CC0ACE7B0E08C918F7D64
:1001C0008C930BC0ACE7B0E08C9180628C9305C03F
:1001D000ACE7B0E08C9180628C938E2F90E08830F9
:1001E0009105A8F5FC01E45CFF4F0C941403ECE7C7
:1001F000F0E08081807F80830895ECE7F0E08081EB
:10020000816080830895ECE7F0E0808182608083E4
:100210000895ECE7F0E08081836080830895ECE747
:10022000F0E08081846080830895ECE7F0E08081D5
:10023000856080830895ECE7F0E0808186608083AC
:100240000895ECE7F0E08081876080830895ECE713
:10025000F0E08081807F80830895F8948AB1837074
:100260008AB98BB18C6F8BB98CEF80936D0084E071
:1002700080936800789408950E942D0140E060E822
:1002800081E00E94630087E60E94E60246E060E4A7
:1002900070E080E00E94B002FFCF1F920F920FB675
:1002A0000F9211242F933F934F935F936F937F93FC
:1002B0008F939F93AF93BF93EF93FF9380911E0112
:1002C000882319F0813049F14FC061E081E00E943C
:1002D000D0008091790080931D0180911D018436AA
:1002E00060F482E30E94FA0280E091E00E94010340
:1002F00082E091E00E94010337C080911D01813AA4
:1003000098F182E30E94FA0284E091E00E940103E6
:1003100082E091E00E94010327C061E080E00E943A
:10032000D0008091790080931C0180911C0184365B
:1003300060F482E30E94FA0286E091E00E940103E9
:1003400082E091E00E9401030FC080911C01813A7C
:1003500058F082E30E94FA0288E091E00E940103D3
:1003600082E091E00E94010380911E018F5F8093E3
:100370001E0180911E01823010F010921E01EAE7EA
:10038000F0E0808180648083FF91EF91BF91AF9115
:100390009F918F917F916F915F914F913F912F919D
:1003A0000F900FBE0F901F9018951F920F920FB6CF
:1003B0000F9211248F9380911B01882329F0809143
:1003C0001B01815080931B0180911A01882329F021
:1003D00080911A01815080931A018091190188231C
:1003E00029F08091190181508093190180911801A1
:1003F000882329F080911801815080931801809101
:100400001701882329F080911701815080931701EB
:1004100080911601882329F08091160181508093E4
:10042000160186E086BD8F910F900FBE0F901F9032
:1004300018951F920F920FB60F9211242F933F938E
:100440004F935F936F937F938F939F93AF93BF93DC
:10045000EF93FF934A9912C08091160181110EC04B
:1004600081E480931B0182E30E94FA028AE091E01A
:100470000E94010382E091E00E9401034B9911C0A8
:100480008091160181110DC082E380931A010E94B0
:10049000FA028CE091E00E94010382E091E00E9468
:1004A00001034C9911C08091160181110DC082E3A6
:1004B000809319010E94FA028EE091E00E940103EC
:1004C00082E091E00E9401034D9912C080911601D3
:1004D00081110EC082E38093180181E30E94FA0229
:1004E00080E191E00E94010382E091E00E9401031B
:1004F0004E9911C08091160181110DC082E3809345
:1005000017010E94FA0282E191E00E94010382E059
:1005100091E00E9401034F9912C080911601811150
:100520000EC081E48093160182E30E94FA0284E106
:1005300091E00E94010382E091E00E940103FF919B
:10054000EF91BF91AF919F918F917F916F915F914B
:100550004F913F912F910F900FBE0F901F901895C4
:10056000882319F0813019F005C014BC04C082E062
:1005700084BD01C014BC60347105C1F038F4613031
:10058000710561F06830710569F01BC0611581E08B
:10059000780781F06115744089F013C085B58160DA
:1005A00085BD0FC085B5826085BD0BC085B58360F4
:1005B00085BD07C085B5846085BD03C085B58560F0
:1005C00085BD46BD81E080936E0008959AB192602A
:1005D0009AB99AB19E7F9AB91092C00098E9909307
:1005E000C10096E09093C20090E09093C500809384
:1005F000C40008959091C00095FFFCCF8093C60081
:1006000008950F931F93CF938C01C0E003C00E9405
:10061000FA02CF5FF801EC0FF11D80818111F7CF55
:10062000CF911F910F910895EE0FFF1F0590F49148
:08063000E02D0994F894FFCFBE
:1006380048000A0047004A004B00410042004300BE
:06064800440045004600DD
:00000001FF
